{
  "_format": "hh-sol-artifact-1",
  "contractName": "SecurePass",
  "sourceName": "contracts/SecurePass.sol",
  "abi": [
    {
      "inputs": [
        {
          "internalType": "string",
          "name": "topic",
          "type": "string"
        },
        {
          "internalType": "string",
          "name": "username",
          "type": "string"
        },
        {
          "internalType": "string",
          "name": "passwordVal",
          "type": "string"
        }
      ],
      "name": "addPassword",
      "outputs": [],
      "stateMutability": "nonpayable",
      "type": "function"
    },
    {
      "inputs": [
        {
          "internalType": "address",
          "name": "pubkey",
          "type": "address"
        }
      ],
      "name": "checkUserExists",
      "outputs": [
        {
          "internalType": "bool",
          "name": "",
          "type": "bool"
        }
      ],
      "stateMutability": "view",
      "type": "function"
    },
    {
      "inputs": [
        {
          "internalType": "string",
          "name": "email",
          "type": "string"
        },
        {
          "internalType": "string",
          "name": "name",
          "type": "string"
        },
        {
          "internalType": "string",
          "name": "securepassword",
          "type": "string"
        }
      ],
      "name": "createAccount",
      "outputs": [],
      "stateMutability": "nonpayable",
      "type": "function"
    },
    {
      "inputs": [],
      "name": "getMyPasswords",
      "outputs": [
        {
          "components": [
            {
              "internalType": "string",
              "name": "topic",
              "type": "string"
            },
            {
              "internalType": "string",
              "name": "username",
              "type": "string"
            },
            {
              "internalType": "string",
              "name": "passwordVal",
              "type": "string"
            }
          ],
          "internalType": "struct SecurePass.password[]",
          "name": "",
          "type": "tuple[]"
        }
      ],
      "stateMutability": "view",
      "type": "function"
    },
    {
      "inputs": [
        {
          "internalType": "address",
          "name": "pubkey",
          "type": "address"
        }
      ],
      "name": "getUsername",
      "outputs": [
        {
          "internalType": "string",
          "name": "",
          "type": "string"
        }
      ],
      "stateMutability": "view",
      "type": "function"
    }
  ],
  "bytecode": "0x608060405234801561001057600080fd5b50611261806100206000396000f3fe608060405234801561001057600080fd5b50600436106100575760003560e01c8063133f50f51461005c5780633568ee3b1461008c5780636c5376c9146100aa578063bc53c0c4146100c6578063ce43c032146100e2575b600080fd5b610076600480360381019061007191906108cf565b610112565b6040516100839190610917565b60405180910390f35b61009461016b565b6040516100a19190610ae2565b60405180910390f35b6100c460048036038101906100bf9190610b69565b6103bf565b005b6100e060048036038101906100db9190610b69565b6104e7565b005b6100fc60048036038101906100f791906108cf565b610677565b6040516101099190610c67565b60405180910390f35b6000806000808473ffffffffffffffffffffffffffffffffffffffff1673ffffffffffffffffffffffffffffffffffffffff168152602001908152602001600020600001805461016190610cb8565b9050119050919050565b60606000803373ffffffffffffffffffffffffffffffffffffffff1673ffffffffffffffffffffffffffffffffffffffff168152602001908152602001600020600301805480602002602001604051908101604052809291908181526020016000905b828210156103b6578382906000526020600020906003020160405180606001604052908160008201805461020190610cb8565b80601f016020809104026020016040519081016040528092919081815260200182805461022d90610cb8565b801561027a5780601f1061024f5761010080835404028352916020019161027a565b820191906000526020600020905b81548152906001019060200180831161025d57829003601f168201915b5050505050815260200160018201805461029390610cb8565b80601f01602080910402602001604051908101604052809291908181526020018280546102bf90610cb8565b801561030c5780601f106102e15761010080835404028352916020019161030c565b820191906000526020600020905b8154815290600101906020018083116102ef57829003601f168201915b5050505050815260200160028201805461032590610cb8565b80601f016020809104026020016040519081016040528092919081815260200182805461035190610cb8565b801561039e5780601f106103735761010080835404028352916020019161039e565b820191906000526020600020905b81548152906001019060200180831161038157829003601f168201915b505050505081525050815260200190600101906101ce565b50505050905090565b6103c833610112565b610407576040517f08c379a00000000000000000000000000000000000000000000000000000000081526004016103fe90610d35565b60405180910390fd5b6104df3387878080601f016020809104026020016040519081016040528093929190818152602001838380828437600081840152601f19601f8201169050808301925050505050505086868080601f016020809104026020016040519081016040528093929190818152602001838380828437600081840152601f19601f8201169050808301925050505050505085858080601f016020809104026020016040519081016040528093929190818152602001838380828437600081840152601f19601f82011690508083019250505050505050610792565b505050505050565b600015156104f433610112565b151514610536576040517f08c379a000000000000000000000000000000000000000000000000000000000815260040161052d90610da1565b60405180910390fd5b6000868690501161057c576040517f08c379a000000000000000000000000000000000000000000000000000000000815260040161057390610e0d565b60405180910390fd5b85856000803373ffffffffffffffffffffffffffffffffffffffff1673ffffffffffffffffffffffffffffffffffffffff16815260200190815260200160002060000191826105cc92919061101d565b5083836000803373ffffffffffffffffffffffffffffffffffffffff1673ffffffffffffffffffffffffffffffffffffffff168152602001908152602001600020600101918261061d92919061101d565b5081816000803373ffffffffffffffffffffffffffffffffffffffff1673ffffffffffffffffffffffffffffffffffffffff168152602001908152602001600020600201918261066e92919061101d565b50505050505050565b606061068282610112565b6106c1576040517f08c379a00000000000000000000000000000000000000000000000000000000081526004016106b890611139565b60405180910390fd5b6000808373ffffffffffffffffffffffffffffffffffffffff1673ffffffffffffffffffffffffffffffffffffffff168152602001908152602001600020600001805461070d90610cb8565b80601f016020809104026020016040519081016040528092919081815260200182805461073990610cb8565b80156107865780601f1061075b57610100808354040283529160200191610786565b820191906000526020600020905b81548152906001019060200180831161076957829003601f168201915b50505050509050919050565b600060405180606001604052808581526020018481526020018381525090506000808673ffffffffffffffffffffffffffffffffffffffff1673ffffffffffffffffffffffffffffffffffffffff16815260200190815260200160002060030181908060018154018082558091505060019003906000526020600020906003020160009091909190915060008201518160000190816108319190611159565b5060208201518160010190816108479190611159565b50604082015181600201908161085d9190611159565b5050505050505050565b600080fd5b600080fd5b600073ffffffffffffffffffffffffffffffffffffffff82169050919050565b600061089c82610871565b9050919050565b6108ac81610891565b81146108b757600080fd5b50565b6000813590506108c9816108a3565b92915050565b6000602082840312156108e5576108e4610867565b5b60006108f3848285016108ba565b91505092915050565b60008115159050919050565b610911816108fc565b82525050565b600060208201905061092c6000830184610908565b92915050565b600081519050919050565b600082825260208201905092915050565b6000819050602082019050919050565b600081519050919050565b600082825260208201905092915050565b60005b8381101561099857808201518184015260208101905061097d565b60008484015250505050565b6000601f19601f8301169050919050565b60006109c08261095e565b6109ca8185610969565b93506109da81856020860161097a565b6109e3816109a4565b840191505092915050565b60006060830160008301518482036000860152610a0b82826109b5565b91505060208301518482036020860152610a2582826109b5565b91505060408301518482036040860152610a3f82826109b5565b9150508091505092915050565b6000610a5883836109ee565b905092915050565b6000602082019050919050565b6000610a7882610932565b610a82818561093d565b935083602082028501610a948561094e565b8060005b85811015610ad05784840389528151610ab18582610a4c565b9450610abc83610a60565b925060208a01995050600181019050610a98565b50829750879550505050505092915050565b60006020820190508181036000830152610afc8184610a6d565b905092915050565b600080fd5b600080fd5b600080fd5b60008083601f840112610b2957610b28610b04565b5b8235905067ffffffffffffffff811115610b4657610b45610b09565b5b602083019150836001820283011115610b6257610b61610b0e565b5b9250929050565b60008060008060008060608789031215610b8657610b85610867565b5b600087013567ffffffffffffffff811115610ba457610ba361086c565b5b610bb089828a01610b13565b9650965050602087013567ffffffffffffffff811115610bd357610bd261086c565b5b610bdf89828a01610b13565b9450945050604087013567ffffffffffffffff811115610c0257610c0161086c565b5b610c0e89828a01610b13565b92509250509295509295509295565b600082825260208201905092915050565b6000610c398261095e565b610c438185610c1d565b9350610c5381856020860161097a565b610c5c816109a4565b840191505092915050565b60006020820190508181036000830152610c818184610c2e565b905092915050565b7f4e487b7100000000000000000000000000000000000000000000000000000000600052602260045260246000fd5b60006002820490506001821680610cd057607f821691505b602082108103610ce357610ce2610c89565b5b50919050565b7f43726561746520616e206163636f756e74206669727374000000000000000000600082015250565b6000610d1f601783610c1d565b9150610d2a82610ce9565b602082019050919050565b60006020820190508181036000830152610d4e81610d12565b9050919050565b7f5573657220616c72656164792065786973747300000000000000000000000000600082015250565b6000610d8b601383610c1d565b9150610d9682610d55565b602082019050919050565b60006020820190508181036000830152610dba81610d7e565b9050919050565b7f456d61696c2063616e6e6f7420626520656d7074790000000000000000000000600082015250565b6000610df7601583610c1d565b9150610e0282610dc1565b602082019050919050565b60006020820190508181036000830152610e2681610dea565b9050919050565b600082905092915050565b7f4e487b7100000000000000000000000000000000000000000000000000000000600052604160045260246000fd5b60008190508160005260206000209050919050565b60006020601f8301049050919050565b600082821b905092915050565b600060088302610ec97fffffffffffffffffffffffffffffffffffffffffffffffffffffffffffffffff82610e8c565b610ed38683610e8c565b95508019841693508086168417925050509392505050565b6000819050919050565b6000819050919050565b6000610f1a610f15610f1084610eeb565b610ef5565b610eeb565b9050919050565b6000819050919050565b610f3483610eff565b610f48610f4082610f21565b848454610e99565b825550505050565b600090565b610f5d610f50565b610f68818484610f2b565b505050565b5b81811015610f8c57610f81600082610f55565b600181019050610f6e565b5050565b601f821115610fd157610fa281610e67565b610fab84610e7c565b81016020851015610fba578190505b610fce610fc685610e7c565b830182610f6d565b50505b505050565b600082821c905092915050565b6000610ff460001984600802610fd6565b1980831691505092915050565b600061100d8383610fe3565b9150826002028217905092915050565b6110278383610e2d565b67ffffffffffffffff8111156110405761103f610e38565b5b61104a8254610cb8565b611055828285610f90565b6000601f8311600181146110845760008415611072578287013590505b61107c8582611001565b8655506110e4565b601f19841661109286610e67565b60005b828110156110ba57848901358255600182019150602085019450602081019050611095565b868310156110d757848901356110d3601f891682610fe3565b8355505b6001600288020188555050505b50505050505050565b7f55736572206973206e6f74207265676973746572656400000000000000000000600082015250565b6000611123601683610c1d565b915061112e826110ed565b602082019050919050565b6000602082019050818103600083015261115281611116565b9050919050565b6111628261095e565b67ffffffffffffffff81111561117b5761117a610e38565b5b6111858254610cb8565b611190828285610f90565b600060209050601f8311600181146111c357600084156111b1578287015190505b6111bb8582611001565b865550611223565b601f1984166111d186610e67565b60005b828110156111f9578489015182556001820191506020850194506020810190506111d4565b868310156112165784890151611212601f891682610fe3565b8355505b6001600288020188555050505b50505050505056fea264697066735822122079eaa91d81059cace4aa829149c45dc3489a97cbc2a36b6cd7e145d0760b9cd264736f6c63430008120033",
  "linkReferences": {},
  "deployedLinkReferences": {}
}